:020000040000FA
:100000008316003088018600831288015B308800E7
:10001000861706128612061300000000000000007A
:1000200000000000000000000000000000000000D0
:1000300000000000000000000000000000000000C0
:100040003F30880086168613061206130000000053
:1000500000000000000000000000000000000000A0
:1000600000000000000000000000000000003F3021
:100070008800061786130612861200000000000092
:100080000000000000000000000000000000000070
:10009000000000000000000000004F30880006163D
:1000A0008613061386120000000000000000000006
:1000B0000000000000000000000000000000000040
:0A00C0000000000000000000062808
:0400CA0000340034CA
:02400E00393F38
:00000001FF
